S01700004763634170706C69636174696F6E312E737265635B
S11300001BC10000B5C10000B3C10000B1C10000B4
S1130010AFC10000ADC10000ABC10000A9C1000028
S1130020A7C1000011C7000042C7000073C7000049
S11300309FC100000C94AD0F0C94E00F99C1000017
S113004097C100000C9413100C9446100C94791072
S11300500C94AC100C94470F0C947A0F0C945A0B1C
S113006087C1000085C1000083C1000081C1000078
S11300707FC100007DC100007BC1000079C1000088
S11300800C94DF100C9412110C9445110C947811FB
S11300906FC100006DC100006BC1000069C10000A8
S11300A067C1000065C100000C94AB110C94DE1113
S11300B00C9411120C9444125BC100000C9477123E
S11300C00C94AA120C94DD120C94101351C100006C
S11300D04FC100004DC100004BC1000049C10000E8
S11300E047C100001C021201FE00EE00B5012061B0
S11300F06D20706D20202020202020202000203220
S11301003420686F75722020202020202020202099
S113011020002D2D5345542054494D4520464F521F
S11301204D41542D2D2020001C027D0168015401F5
S11301304001B5011C029301680154014001B5015D
S113014020536574205365636F6E64202020202043
S11301502020200020536574204D696E757465203D
S113016020202020202020002053657420486F7513
S1130170722020202020202020202020002D2D53FC
S113018045542053544F5057415443482D2D20205B
S1130190202000202020202D2D53455420434C4F57
S11301A0434B2D2D20202020001C020802F301DEE9
S11301B001CA01B5012045786974206D656E75200A
S11301C0202020202020202020004368616E6765C5
S11301D020646973706C61792074797065002053B0
S11301E065742053746F70776174636820202020D5
S11301F02020002053657420636C6F636B202020E3
S113020020202020202020002D2D43484F4F5345EF
S11302102046554E4354494F4E2D2D00202020207A
S113022020202020202020202020202020202000EA
S1130230C40340065B0CCA0314BE0FB6F894A89519
S113024080916000886180936000109260000FBE0E
S113025014BE0FB6F894A8958091600088618093CD
S11302606000109260000FBE14BE0FB6F894A895FB
S113027080916000886180936000109260000FBEDE
S113028014BE0FB6F894A89580916000886180939D
S11302906000109260000FBE14BE0FB6F894A895CB
S11302A080916000886180936000109260000FBEAE
S11302B014BE0FB6F894A89580916000886180936D
S11302C06000109260000FBE14BE0FB6F894A8959B
S11302D080916000886180936000109260000FBE7E
S11302E014BE0FB6F894A89580916000886180933D
S11302F06000109260000FBE14BE0FB6F894A8956B
S113030080916000886180936000109260000FBE4D
S113031011241FBECFEFD1E2DEBFCDBF00E00CBF82
S113032014E0A0E0B2E0EAE3F1E300E00BBF02C0B6
S113033007900D92AE31B107D9F72EE1AEE1B4E0EA
S113034001C01D92A334B207E1F711E0CBE1D1E083
S113035000E006C021970109802FFE010E94841845
S1130360C831D10780E00807A9F769D00C948C182C
S113037047CE88E594E074C208958EE494E08AC27E
S11303800895CF92DF92EF92FF920F931F93CF9332
S1130390DF93EC016B01019709F03DC06F3F7F4F84
S11303A0D1F5E8E5F4E010821182128213821482FE
S11303B015821682178210861186EEE4F4E010820C
S11303C01182128213821482158216821782108679
S11303D01186E12CF12C00E010E020E030E049EB44
S11303E051E061E08CE394E00E94431320E030E0AC
S11303F04DEB51E063E08AE294E00E94431320E075
S113040040E069E084E294E0FBD420E04FEF60E058
S11304108EE194E0F5D4CD2B49F4CD20C09431F491
S11304208EE494E02CD488E594E029D4DF91CF9134
S11304301F910F91FF90EF90DF90CF90089510924D
S113044059047894EE24EA9400E010E020E030E0CF
S113045040E050E068EE73E08CE394E00E942014E6
S113046020E030E040E050E068EE73E08AE294E09F
S11304700E9420142FB7F89481E001C080E0882303
S1130480B9F0809123048F3F39F4E0912004F09176
S1130490210482811282F2CFAEE1B4E01296ED9192
S11304A0FC911397928114968C91892B8283E6CFC9
S11304B02FBF80915104811116C044E160E08EEA9F
S11304C094E08CD640E069EB72E08EEA94E0CED7FB
S11304D044E161E08EEA94E081D640E068EC72E0A9
S11304E08EEA94E0C3D72FB7F89481E08823C1F053
S11304F0E4E2F4E094819095907885818F3F31F423
S1130500E0912604F0912704808106C0E09126043E
S1130510F091270480818095C92FC82380E0E6CF1D
S11305202FBFCC2369F1EEE4F4E0128213822FB7DB
S1130530F89481E001C080E08823F1F080912304E5
S11305408F3F69F4AEE1B4E01296ED91FC911397FC
S1130550928114968C918078892B8283ECCFAEE1C2
S1130560B4E01296ED91FC911397928114968C91BC
S11305708F7789238283DFCF2FBF8EEA94E0BCD7A5
S11305806091580488E594E0BCD2809155048111AF
S113059008C080915604811104C0809157048823B7
S11305A009F161E08EE494E01DD380915004882326
S11305B0C9F081E08093510444E160E08EEA94E064
S11305C00DD640E062ED72E08EEA94E04FD744E14C
S11305D061E08EEA94E002D640E065EE72E08EEAD5
S11305E094E044D73FB7F89481E08823C1F0E4E273
S11305F0F4E084818095887095819F3F31F4E09187
S11306002604F0912704208106C0E0912604F0918D
S1130610270420812095D82FD22380E0E6CF3FBF46
S1130620DD2309F427CF2FB7F89481E001C080E0DF
S11306308823F1F0809123048F3F69F4AEE1B4E0A4
S11306401296ED91FC911397928114968C91887077
S1130650892B8283ECCFAEE1B4E01296ED91FC914C
S11306601397928114968C91877F89238283DFCF9D
S11306702FBF1092500489E894E00E940B0E182FAB
S113068040E061E08EEA94E0A9D5113099F138F0A8
S1130690123009F458C0133009F472C0EBCE81E073
S11306A0809359048CE794E00E940B0E8330E1F0B0
S11306B0811103C091E090935C04813019F491E0BE
S11306C090935D04823019F491E090935E04482F76
S11306D060E088E594E0F9D08EEA94E00DD760E01C
S11306E088E594E07FD2DECF8EEA94E005D71092BD
S11306F05904C0CE81E0809350048FE694E00E94B8
S11307000B0E8330E1F0811103C091E09093520409
S1130710813019F491E090935304823019F491E0FC
S113072090935404482F61E08EE494E0CED08EEA96
S113073094E0E2D661E08EE494E054D2DECF8EEA17
S113074094E0DAD697CE82E694E00E940B0E8230D3
S1130750A1F0882319F0813041F012C0109258049E
S113076060E088E594E0CDD10BC081E0809358042B
S113077061E088E594E0C5D103C08EEA94E0BCD67C
S11307808EEA94E0B9D676CE6FEF7FEF81E090E009
S1130790F8CD08956FEF7FEF80E090E0F2CD0895FB
S11307A0019709F05CC06F3F7F4F09F058C02CE0FF
S11307B049E062E08EEA94E0F5D568E086E994E0E9
S11307C00E94F60CE9E8F4E089EA91E091838083E1
S11307D063E0628352E0538375E0748344E14583AC
S11307E02EEA34E03783268386E994E09187808774
S11307F0138612861486ECE7F4E0A4E3B1E0B18337
S1130800A0836283538374834583378326839187CC
S11308108087138612861486EFE6F4E0A8E2B1E03E
S1130820B183A08362835383748345833783268390
S113083091878087138612861486E2E6F4E0A4EE9C
S1130840B0E0B183A0836283538354E0548345832F
S113085037832683918780871386128614860895AA
S1130860FC018181811115C081858B3318F48F5F60
S113087081870895118680858B3318F48F5F808774
S1130880089510868781873118F48F5F87830895D0
S113089017820895FC018281811116C08185882305
S11308A019F08150818708958085882329F081502B
S11308B080878BE3818708958781882329F081507D
S11308C087838BE3808781870895CF92DF92EF92AD
S11308D0FF921F93CF93DF936C01C62F142F40E038
S11308E063E08EEA94E07AD4CC2319F0C13041F06D
S11308F00DC040E06FEE72E08EEA94E0B7D506C01A
S113090040E068EF72E08EEA94E0B0D542E062E045
S11309108EEA94E063D440E062E073E08EEA94E00F
S1130920A5D5113049F018F0123059F00EC068E422
S11309308EEA94E06AD509C06DE48EEA94E065D548
S113094004C063E58EEA94E060D5113079F018F0C4
S11309501230B9F020C020E030E047E150E060E020
S113096070E086E994E00E94270D15C020E030E095
S11309704BE350E060E070E086E994E00E94270DCC
S11309800AC020E030E04BE350E060E070E086E92C
S113099094E00E94270DF12CC0E044E160E08EEA6F
S11309A094E01CD440E065E073E08EEA94E05ED508
S11309B044E161E08EEA94E011D440E068E173E040
S11309C08EEA94E053D544E162E08EEA94E006D4E2
S11309D040E06AE273E08EEA94E048D544E163E0E3
S11309E08EEA94E0FBD340E06CE373E08EEA94E09B
S11309F03DD58091A204882379F0C6E9D4E01C8611
S1130A00E881F9810480F581E02D60E1CE0119953A
S1130A108A899B89C82F33C08091A304882379F1E4
S1130A20E6E9F4E01586E488F588CE2D42E062E03C
S1130A308EEA94E0D3D3B701772720E342E08EEA2D
S1130A4094E0E4D5113059F018F0123079F015C063
S1130A5068E48EEA94E0D9D4FF24F39410C06DE4E2
S1130A608EEA94E0D2D4FF24F39409C063E58EEABD
S1130A7094E0CBD4FF24F39402C0FF24F394809138
S1130A80030183FD04C0F11004C080E003C080E0D2
S1130A9001C081E0882309F480CF40E060E08EEA61
S1130AA094E09CD3F60184818111C783F6011482FA
S1130AB085818111C087F601158286818111C187E4
S1130AC0F6011682EEEAF4E060816D7F6083CF0167
S1130AD02AD342E062E08EEA94E080D3C6E9D4E00F
S1130AE0E881F9810480F581E02D64E3CE01199554
S1130AF01B86DF91CF911F91FF90EF90DF90CF90F5
S1130B0008951F93CF93DF93EC01162F40E060E02C
S1130B108EEA94E063D3112309F43EC06F816D30F3
S1130B2048F070E06C50710920E342E08EEA94E0F2
S1130B306DD506C070E020E342E08EEA94E066D50D
S1130B406AE38EEA94E061D4688570E020E342E0D1
S1130B508EEA94E05BD56AE38EEA94E056D4698524
S1130B6070E020E342E08EEA94E050D549E060E092
S1130B708EEA94E033D38F818C3038F040E06EE419
S1130B8073E08EEA94E072D429C040E061E573E03A
S1130B908EEA94E06BD422C06F8170E020E342E0DF
S1130BA08EEA94E033D56AE38EEA94E02ED4688525
S1130BB070E020E342E08EEA94E028D56AE38EEA0E
S1130BC094E023D4698570E020E342E08EEA94E067
S1130BD01DD549E060E08EEA94E000D3DF91CF9127
S1130BE01F910895CF93DF93EC01662319F140E040
S1130BF061E08EEA94E0F2D26F8170E020E342E09B
S1130C008EEA94E003D56AE38EEA94E0FED3688525
S1130C1070E020E342E08EEA94E0F8D46AE38EEADE
S1130C2094E0F3D3698570E020E342E08EEA94E037
S1130C30EDD422C040E060E08EEA94E0CFD26F8130
S1130C4070E020E342E08EEA94E0E0D46AE38EEAC6
S1130C5094E0DBD3688570E020E342E08EEA94E020
S1130C60D5D46AE38EEA94E0D0D3698570E020E3BA
S1130C7042E08EEA94E0CAD4DF91CF9108950895BA
S1130C806FEF7FEF81E090E08BCD0895DC012FB70B
S1130C90F8941296ED91FC91139714969C911497E5
S1130CA015968C918F3F09F06095692362832FBF5D
S1130CB00895FC012FB7F89485818F3F59F4A281E0
S1130CC0B38112968C91129794816923682B1296A2
S1130CD06C930BC0A281B38112969C91129784816C
S1130CE089236095682312966C932FBF0895FC01A5
S1130CF02FB7F89485818F3F61F4A281B381129656
S1130D009C911297848189236095682312966C9331
S1130D100AC0A281B38112969C91129784816823A0
S1130D20692B12966C932FBF0895DC012FB7F894AA
S1130D301296ED91FC911397928114968C916823ED
S1130D40692762832FBF0895FC012FB7F89484812B
S1130D508095682385818F3F29F40280F381E02DFB
S1130D60808106C00280F381E02D9081892F8095D7
S1130D702FBF86230895CF93DF93EC01E881F98197
S1130D800084F185E02D6FEF19959A852885382F19
S1130D9030959323922B98879A852985909598234B
S1130DA0922B99878A87EE81FF81309709F01995F4
S1130DB0DF91CF910895EF92FF921F93CF93DF932A
S1130DC07C01D62F1FB7F894D70114966C91149711
S1130DD06095ED91FC910084F185E02DC701199592
S1130DE0C82F80958D2309F41ED41FBF8C2F8D230B
S1130DF049F38C2FDF91CF911F91FF90EF900895CD
S1130E000F931F93CF93DF938C01862FD42FC22F80
S1130E102AE633E0D8012D933C930E941418F8017C
S1130E2093838283D483C583009749F0DC011196B0
S1130E30DC930280F381E02DCD2BC095C283DF913A
S1130E40CF911F910F9108951F920F920FB60F9299
S1130E5011240BB60F922F933F934F935F936F938D
S1130E607F938F939F93AF93BF93EF93FF9380915F
S1130E70B8049091B904009739F0DC01ED91FC912C
S1130E800484F585E02D1995FF91EF91BF91AF9101
S1130E909F918F917F916F915F914F913F912F918E
S1130EA00F900BBE0F900FBE0F901F9018951F92BE
S1130EB00F920FB60F9211240BB60F922F933F93FC
S1130EC04F935F936F937F938F939F93AF93BF934E
S1130ED0EF93FF938091BC049091BD04009739F087
S1130EE0DC01ED91FC910484F585E02D1995FF91C9
S1130EF0EF91BF91AF919F918F917F916F915F918E
S1130F004F913F912F910F900BBE0F900FBE0F90FA
S1130F101F9018951F920F920FB60F9211240BB6C3
S1130F200F922F933F934F935F936F937F938F937E
S1130F309F93AF93BF93EF93FF938091BA049091E3
S1130F40BB04009739F0DC01ED91FC910484F58534
S1130F50E02D1995FF91EF91BF91AF919F918F91E2
S1130F607F916F915F914F913F912F910F900BBEA5
S1130F700F900FBE0F901F901895FF920F931F9321
S1130F80CF93DF93EC01F62E3BDF88E593E0998362
S1130F9088831F830E83188619861A8681E0F812C7
S1130FA00EC0D093B904C093B804E8E6F0E08081A1
S1130FB0816080838C81809580936B0022C089E05E
S1130FC0F8120EC0D093BB04C093BA04E8E6F0E074
S1130FD08081846080838C81809580936D0011C0B2
S1130FE088E0F8120EC0D093BD04C093BC04E8E6B8
S1130FF0F0E08081826080838C818095880F80936B
S11310006C00DF91CF911F910F91FF900895CF93C2
S1131010DF93FC016FB7F894A281B3811C92A28183
S1131020B381119780EF8C93A281B3818C918062FC
S11310308C9381E090E0A281B3814C919C01018466
S113104002C0220F331F0A94E2F724272C9325E0D1
S11310502A95F1F70000A281B381ED01229728813E
S11310602295207F3C91AC01018402C0440F551F9E
S11310700A94E2F743274C933AE03A95F1F700C01B
S1131080A281B3813C91AC01018402C0440F551F7D
S11310900A94E2F743274C9335E03A95F1F70000C0
S11310A0A281B381ED01229738813C91AC01018486
S11310B002C0440F551F0A94E2F743274C9322239E
S11310C00CF4B9CFA281B3818C918F7D8C93028073
S11310D0F381E02D31978FEF80836FBFDF91CF9144
S11310E00895FC014FB7F894A281B3815C9121E08B
S11310F030E0C901018402C0880F991F0A94E2F705
S113110085278C9385E08A95F1F70000A281B3814D
S11311108C91018402C0220F331F0A94E2F728271E
S11311202C934FBF0895EF92FF920F931F93CF9389
S1131130DF93EC01062F8C81893011F0CE0167DF3B
S11311401FB7F894E02EF12CF594E794F594E79406
S1131150F594E794F594E794EA81FB81E082CE016B
S1131160C0DF0F70EA81FB810083CE01BADFEA8120
S1131170FB8110828C81893031F587EC90E00197F6
S1131180F1F700C000001FC01985143011F084E08D
S113119001C087E08987FFB6F894EA81FB81E08289
S11311A0CE019FDFEA81FB810083CE019ADFEA81D1
S11311B0FB811082198787EC90E00197F1F700C05A
S11311C00000FFBE04C01FBF8C818930E9F2DF91AB
S11311D0CF911F910F91FF90EF900895CF93DF93DC
S11311E0FC01A581B6818C916817F0F411968C915D
S11311F011974817D8F440876783ED01C60FD11DB6
S11312008A81480F8481893039F48C9186956817D6
S113121018F087E0818702C084E08187CF01642FC2
S1131220606881DF81E003C080E001C080E0DF917D
S1131230CF910895FC01908581E0890F8087A58175
S1131240B68111962C911197821788F08181882399
S113125049F0108687818F5F87839C91891718F0E6
S1131260178201C0908740856781CF01B7CF089569
S11312701F93CF93DF93EC01162F2FEF81EE94E0B1
S1131280215080409040E1F700C00000EA81FB81DA
S113129083E08083CE0125DF8FE19EE40197F1F79F
S11312A000C00000CE011DDF8FE19EE40197F1F73D
S11312B000C00000CE0115DF8FE19EE40197F1F735
S11312C000C00000EA81FB8182E08083CE0109DF57
S11312D08FE19EE40197F1F700C00000612FCE0179
S11312E022DFED81FE818081813021F460E2CE0134
S11312F01ADF03C068E2CE0116DF61E0CE0113DF1E
S11313008C81893031F48FE19EE40197F1F700C0BC
S1131310000066E0CE0107DF8C81893009F03EC011
S113132087E08987EA81FB8183E08083CE01D9DE6F
S11313308FE19EE40197F1F700C00000CE01D1DEF9
S11313408FE19EE40197F1F700C00000CE01C9DEF1
S11313508FE19EE40197F1F700C00000EA81FB8170
S113136082E08083CE01BDDE8FE19EE40197F1F738
S113137000C00000612FCE01D6DE68E2CE01D3DECC
S113138061E0CE01D0DE8FE19EE40197F1F700C069
S1131390000066E0CE01C7DE84E08987DF91CF914B
S11313A01F9108950F931F93CF93DF93EC01862F22
S11313B0042F122F0E9414189C012E5F3F4F3B8371
S11313C02A8324E029870C83402F50E09A01220FBE
S11313D0331F420F531F440F551F4A585C4F5E83FF
S11313E04D8318861F82212F221F2227221F298323
S11313F02FEFFC012183612F6F776883CE0138DFE3
S1131400DF91CF911F910F9108950F931F93CF9365
S1131410DF93EC01162F8C81893011F0CE01F7DDBA
S11314200FB7F894812F82958F708064EA81FB81D5
S11314308083CE0156DE1F701064EA81FB81108325
S1131440CE014FDEEA81FB8110828C81893031F438
S113145087EC90E00197F1F700C000000FBFCE01C8
S1131460E9DEDF91CF911F910F910895EF92FF92E2
S11314700F931F93CF93DF937C01442311F050E02B
S113148002C04FEF5FEFEB018B01040F151F0C1728
S11314901D0739F06881662321F02196C701B5DF65
S11314A0F6CFDF91CF911F910F91FF90EF900895A8
S11314B0EF92FF920F931F93CF93DF937C0144230A
S11314C019F0042F10E002C00FEF1FEF060F171FD3
S11314D0FB01E017F10749F06491EF0121966623BF
S11314E021F0C70192DFFE01F4CFDF91CF911F916C
S11314F00F91FF90EF900895CF93DF93EC0161E09B
S113150012DE8C81893031F48FE19EE40197F1F78A
S113151000C0000018861F8284E08987DF91CF9184
S113152008958F929F92AF92BF92CF92DF92EF92E3
S1131530FF920F931F93CF93DF936C01FB01892BD1
S113154031F40F2EFEEBCF2EF4E0DF2EF02DFF232F
S11315503CF48DE2D6018C93F195E195F10937C005
S1131560D6012C9334C0CF01B8010E945D187C01D0
S11315708E179F0791F4353021F480E3F6018583BB
S11315801CC08881281302C029830DC08D3219F430
S11315902883898208C0998206C0CF01B8010E94BD
S11315A05D18605D6983C801B5010E945D188B01F7
S11315B03F5F2196F7013630B1F6D60116961C929C
S11315C086E090E0841B91098C0D9D1D12C0E601FC
S11315D031E000E117E20F2EF0E39F2EF02D0F2EE5
S11315E0FDE28F2EF02D0F2EFAE0AF2EB12CF02D50
S11315F0BACFDF91CF911F910F91FF90EF90DF90C1
S1131600CF90BF90AF909F908F900895CF93DF932A
S1131610EC0180E090E085DF40E0BC01CE0126DFF4
S1131620DF91CF9108958091C704813061F478945B
S113163083B7817F83BF83B7816083BF889583B776
S11316408E7F83BF089588EC94E00E940E169091DB
S113165008022BE233E0929FF001939FF00D1124D6
S1131660E752FB4F4481558166817781480F511DB4
S1131670611D711D4483558366837783089590911A
S1131680C6049923A9F02091C504E22FF0E0E050AC
S1131690FE4F80813FEF308391509093C6042F5FBB
S11316A0283018F42093C50408951092C5040895B1
S11316B08FEF0895FF93EF93DF93CF93BF93AF938F
S11316C09F938F937F936F935F934F933F932F9346
S11316D01F930F93FF92EF92DF92CF92BF92AF923C
S11316E09F928F927F926F925F924F923F922F922E
S11316F01F920F928FB7C09108022C2F30E04BE25B
S113170053E0249FF001259FF00D349FF00D112428
S1131710E752FB4F80878DB79EB79287818784817C
S11317209581A681B7818F519F4FAF4FBF4F84835F
S11317309583A683B783818181110DC08BE293E0E9
S1131740289FF001299FF00D389FF00D1124E752D6
S1131750FB4F81E0818393DF8F3F19F08093080270
S113176041C08C2F4BE253E08F5F883008F081E05A
S1131770282F30E0249FF001259FF00D349FF00DB9
S11317801124E752FB4F9181913041F5249FF001E0
S1131790259FF00D349FF00D1124E752FB4F9381E8
S11317A0992361F0249FF001259FF00D349FF00DE3
S11317B01124E752FB4F91509383D6CF4BE253E071
S11317C0249FF001259FF00D349FF00D1124E75262
S11317D0FB4F928193838093080204C08C13C4CF7F
S11317E010920802209108028BE293E0289FF001F6
S11317F0299FF00D1124E752FB4F11829FB7F894F3
S11318004091CA045091CB042091FC033091FD0314
S11318104217530751F4E8ECF4E0A481B5818C91AC
S113182085608C93808986BD0AC0E8ECF4E0A481CD
S1131830B5818C9187608C9380898093B2009FBF1F
S1131840209108028BE293E0289FF001299FF00D7C
S11318501124E752FB4F218532853EBF2DBF2091D5
S11318600802289FF001299FF00D1124E752FB4F35
S113187080858FBF0F901F902F903F904F905F9067
S11318806F907F908F909F90AF90BF90CF90DF909C
S1131890EF90FF900F911F912F913F914F915F9186
S11318A06F917F918F919F91AF91BF91CF91DF9174
S11318B0EF91FF91189560E088EC94E00C94EA15A0
S11318C00895DC011296ED91FC9113978281609545
S11318D0682362830895DC011296ED91FC911397BD
S11318E08281682B62830895DC011296ED91FC914C
S11318F0139782816827628308950F931F93CF9370
S1131900DF93FC012385222309F46BC0EC010489D5
S113191015890280F381E02D808183FD0FC081E071
S11319208C878C899D899B8B8A8BE881F9810280C5
S1131930F381E02D60E1CE01199553C0808183705D
S11319408E8B2C893D89EF89F0E0EE0FFF1FEE0F9F
S1131950FF1FE75FFD4FE80FF11D9081290F311D37
S113196097FD3A953D8B2C8B8F8B2C893D898E85E9
S11319709F85821793075CF09D8B8C8BE881F9819E
S11319800280F381E02D60E2CE0119951AC02C8902
S11319903D8988899989281739075CF09D8B8C8B40
S11319A0E881F9810280F381E02D64E0CE0119958C
S11319B008C0E881F9810480F581E02D64E2CE015C
S11319C019958C899D890817190759F0E881F981BF
S11319D00480F581E02D60E1CE01199581E08D87C9
S11319E01C86DF91CF911F910F9108950F931F9340
S11319F0CF93DF93EC0100E010E020E044E3BDDA94
S1131A0086EB93E099838883EA81FB818BEC828364
S1131A10EA81FB818281846382831F861E868FE034
S1131A2097E2998B888B87E893E19D8B8C8B9B8BBA
S1131A308A8B1E8AEA81FB81808183708F8B1C864E
S1131A401D861B86DF91CF911F910F9108950F93EF
S1131A501F93CF93DF93EC0189016417750724F476
S1131A607F876E87598B488B8E859F85081719074A
S1131A7044F028893989201731071CF01D8B0C8B01
S1131A800EC048895989481B590B9A0112F42F5FDB
S1131A903F4F35952795820F931F9D8B8C8B1B8B06
S1131AA00A8BE881F9810480F581E02D64E3CE019D
S1131AB019958E859F850817190749F4E881F981DE
S1131AC00280F381E02D60E2CE0119950DC0888972
S1131AD099890817190741F4E881F9810280F38193
S1131AE0E02D64E0CE0119951C861D8681E08B876C
S1131AF0DF91CF911F910F9108951F93CF93DF939F
S1131B00EC0110E04D81612F8E819F8167DBE881BC
S1131B10F9816591749140E08E819F81C9DC1F5FDA
S1131B208A81811778F7DF91CF911F910895DF9211
S1131B30EF92FF920F931F93CF93DF93EC010B81EE
S1131B40601728F08C81062F861708F4082FFA8076
S1131B50DD24DA94DF0CD00E8C818D1520F4F81A74
S1131B60F00ED82E01C0F12CEFB6F894D01620F464
S1131B7011E0F1101DC01AC061E011E0160F4D8193
S1131B808E819F812BDBE02FF0E0EE0FFF1F888119
S1131B909981E80FF91F6591749140E08E819F81CE
S1131BA087DC0F5F612FD01640F7E3CFEFBE14C080
S1131BB001E0010F4D81612F8E819F810FDBE88150
S1131BC0F9816591749140E08E819F8171DCFA9472
S1131BD0102FF110EDCFEACFDF91CF911F910F912C
S1131BE0FF90EF90DF900895CF93DF93EC014D8148
S1131BF060E08E819F81F2DAE881F9813296659105
S1131C00749140E08E819F8153DC62E0CE018FDFCE
S1131C10DF91CF910895DF92EF92FF920F931F937C
S1131C20CF93DF938C01E0DFF801828593850097E1
S1131C3049F020E030E0448568EE73E00E949F168E
S1131C407C0103C0EE24EA94FE2CF801638170E069
S1131C50448150E09B0180859185F9DEF8018285FD
S1131C609385009729F0B7010E947017811134C041
S1131C70F801C085D1858C85882389F01C86E8818C
S1131C80F9810480F581E02D60E1CE0119958A89FE
S1131C909B890F2EFEEFDF2EF02DD80E1FC08D85F1
S1131CA08823E1F2F80182859385009719F0B70142
S1131CB00E94DE17F801C085D1851D861C86E88147
S1131CC0F9810480F581E02D60E1CE0119956C89DC
S1131CD07D89C8012CDFC2CFDD24DA94F801828526
S1131CE09385009719F0B7010E949117F801C085F8
S1131CF0D185E881F9810480F581E02D64E3CE018A
S1131D0019951B86C801F9DE8D2DDF91CF911F91A6
S1131D100F91FF90EF90DF900895CF93DF93EC0144
S1131D20E885F985309709F019958A859B85892B73
S1131D3039F4E881F9810190F081E02DCE01199503
S1131D40DF91CF910895CF93DF93EC01EA85FB8572
S1131D50309709F019958E859F85892B39F4E88190
S1131D60F9810190F081E02DCE011995DF91CF9199
S1131D7008950895CF93DF93EC01EE85FF853097A6
S1131D8009F01995E881F9810190F081E02DCE01E7
S1131D901995DF91CF910895DC012FB7F89412962D
S1131DA04D915C9113978091FC039091FD0348172A
S1131DB0590759F41496ED91FC911597808185602B
S1131DC0808350968C9186BD0BC01496ED91FC9146
S1131DD0159790819760908350968C918093B20070
S1131DE02FBF0895CF93DF93EC01E885F9853097F1
S1131DF009F019958A859B85892B39F4E881F98145
S1131E000190F081E02DCE011995DF91CF910895D5
S1131E10CF93DF93EC01EA85FB85309709F01995A0
S1131E208C859D85892B39F4E881F9810190F081B5
S1131E30E02DCE011995DF91CF910895CF93DF93D3
S1131E40EC01EC85FD85309709F019958E859F8509
S1131E50892B39F4E881F9810190F081E02DCE01DC
S1131E601995DF91CF910895CF93DF93EC01EE851F
S1131E70FF85309709F01995E881F9810190F08187
S1131E80E02DCE011995DF91CF910895FFCF1F92D8
S1131E900F920FB60F9211240BB60F922F933F930C
S1131EA04F935F936F937F938F939F93AF93BF935E
S1131EB0EF93FF938091341E9091351E009739F073
S1131EC0DC01ED91FC910280F381E02D1995FF91E5
S1131ED0EF91BF91AF919F918F917F916F915F919E
S1131EE04F913F912F910F900BBE0F900FBE0F900B
S1131EF01F9018951F920F920FB60F9211240BB6D4
S1131F000F922F933F934F935F936F937F938F938E
S1131F109F93AF93BF93EF93FF938091341E90915F
S1131F20351E009739F0DC01ED91FC910480F581B8
S1131F30E02D1995FF91EF91BF91AF919F918F91F2
S1131F407F916F915F914F913F912F910F900BBEB5
S1131F500F900FBE0F901F9018951F920F920FB6FF
S1131F600F9211240BB60F922F933F934F935F93CD
S1131F706F937F938F939F93AF93BF93EF93FF934D
S1131F808091381E9091391E009739F0DC01ED9153
S1131F90FC910280F381E02D1995FF91EF91BF919F
S1131FA0AF919F918F917F916F915F914F913F91ED
S1131FB02F910F900BBE0F900FBE0F901F9018958E
S1131FC01F920F920FB60F9211240BB60F922F93FC
S1131FD03F934F935F936F937F938F939F93AF93AD
S1131FE0BF93EF93FF938091381E9091391E009711
S1131FF039F0DC01ED91FC910480F581E02D199517
S1132000FF91EF91BF91AF919F918F917F916F91CC
S11320105F914F913F912F910F900BBE0F900FBE88
S11320200F901F9018951F920F920FB60F921124C4
S11320300BB60F922F933F934F935F936F937F93BE
S11320408F939F93AF93BF93EF93FF938091361E2B
S11320509091371E009739F0DC01ED91FC910280DC
S1132060F381E02D1995FF91EF91BF91AF919F916D
S11320708F917F916F915F914F913F912F910F902D
S11320800BBE0F900FBE0F901F9018951F920F92CA
S11320900FB60F9211240BB60F922F933F934F93C9
S11320A05F936F937F938F939F93AF93BF93EF93BC
S11320B0FF938091361E9091371E009739F0DC0112
S11320C0ED91FC910480F581E02D1995FF91EF913C
S11320D0BF91AF919F918F917F916F915F914F913C
S11320E03F912F910F900BBE0F900FBE0F901F903A
S11320F018951F920F920FB60F9211240BB60F92E0
S11321002F933F934F935F936F937F938F939F93FB
S1132110AF93BF93EF93FF938091361E9091371E38
S1132120009739F0DC01ED91FC910680F781E02DF8
S11321301995FF91EF91BF91AF919F918F917F91ED
S11321406F915F914F913F912F910F900BBE0F9024
S11321500FBE0F901F9018951F920F920FB60F92FB
S113216011240BB60F922F933F934F935F936F936A
S11321707F938F939F93AF93BF93EF93FF9380913C
S1132180361E9091371E009739F0DC01ED91FC91D9
S11321900084F185E02D1995FF91EF91BF91AF91E6
S11321A09F918F917F916F915F914F913F912F916B
S11321B00F900BBE0F900FBE0F901F9018951F929B
S11321C00F920FB60F9211240BB60F922F933F93D9
S11321D04F935F936F937F938F939F93AF93BF932B
S11321E0EF93FF9380913A1E90913B1E009739F034
S11321F0DC01ED91FC910280F381E02D1995FF91B2
S1132200EF91BF91AF919F918F917F916F915F916A
S11322104F913F912F910F900BBE0F900FBE0F90D7
S11322201F9018951F920F920FB60F9211240BB6A0
S11322300F922F933F934F935F936F937F938F935B
S11322409F93AF93BF93EF93FF9380913A1E909126
S11322503B1E009739F0DC01ED91FC910480F5817F
S1132260E02D1995FF91EF91BF91AF919F918F91BF
S11322707F916F915F914F913F912F910F900BBE82
S11322800F900FBE0F901F9018951F920F920FB6CC
S11322900F9211240BB60F922F933F934F935F939A
S11322A06F937F938F939F93AF93BF93EF93FF931A
S11322B080913A1E90913B1E009739F0DC01ED911C
S11322C0FC910680F781E02D1995FF91EF91BF9164
S11322D0AF919F918F917F916F915F914F913F91BA
S11322E02F910F900BBE0F900FBE0F901F9018955B
S11322F01F920F920FB60F9211240BB60F922F93C9
S11323003F934F935F936F937F938F939F93AF9379
S1132310BF93EF93FF9380913A1E90913B1E0097D9
S113232039F0DC01ED91FC910084F185E02D1995E3
S1132330FF91EF91BF91AF919F918F917F916F9199
S11323405F914F913F912F910F900BBE0F900FBE55
S11323500F901F9018951F920F920FB60F92112491
S11323600BB60F922F933F934F935F936F937F938B
S11323708F939F93AF93BF93EF93FF9380913C1EF2
S113238090913D1E009739F0DC01ED91FC910280A3
S1132390F381E02D1995FF91EF91BF91AF919F913A
S11323A08F917F916F915F914F913F912F910F90FA
S11323B00BBE0F900FBE0F901F9018951F920F9297
S11323C00FB60F9211240BB60F922F933F934F9396
S11323D05F936F937F938F939F93AF93BF93EF9389
S11323E0FF9380913C1E90913D1E009739F0DC01D3
S11323F0ED91FC910480F581E02D1995FF91EF9109
S1132400BF91AF919F918F917F916F915F914F9108
S11324103F912F910F900BBE0F900FBE0F901F9006
S113242018951F920F920FB60F9211240BB60F92AC
S11324302F933F934F935F936F937F938F939F93C8
S1132440AF93BF93EF93FF9380913C1E90913D1EF9
S1132450009739F0DC01ED91FC910680F781E02DC5
S11324601995FF91EF91BF91AF919F918F917F91BA
S11324706F915F914F913F912F910F900BBE0F90F1
S11324800FBE0F901F9018951F920F920FB60F92C8
S113249011240BB60F922F933F934F935F936F9337
S11324A07F938F939F93AF93BF93EF93FF93809109
S11324B03C1E90913D1E009739F0DC01ED91FC919A
S11324C00084F185E02D1995FF91EF91BF91AF91B3
S11324D09F918F917F916F915F914F913F912F9138
S11324E00F900BBE0F900FBE0F901F9018951F9268
S11324F00F920FB60F9211240BB60F922F933F93A6
S11325004F935F936F937F938F939F93AF93BF93F7
S1132510EF93FF9380913E1E90913F1E009739F0F8
S1132520DC01ED91FC910280F381E02D1995FF917E
S1132530EF91BF91AF919F918F917F916F915F9137
S11325404F913F912F910F900BBE0F900FBE0F90A4
S11325501F9018951F920F920FB60F9211240BB66D
S11325600F922F933F934F935F936F937F938F9328
S11325709F93AF93BF93EF93FF9380913E1E9091EF
S11325803F1E009739F0DC01ED91FC910480F58148
S1132590E02D1995FF91EF91BF91AF919F918F918C
S11325A07F916F915F914F913F912F910F900BBE4F
S11325B00F900FBE0F901F9018951F920F920FB699
S11325C00F9211240BB60F922F933F934F935F9367
S11325D06F937F938F939F93AF93BF93EF93FF93E7
S11325E080913E1E90913F1E009739F0DC01ED91E1
S11325F0FC910680F781E02D1995FF91EF91BF9131
S1132600AF919F918F917F916F915F914F913F9186
S11326102F910F900BBE0F900FBE0F901F90189527
S11326201F920F920FB60F9211240BB60F922F9395
S11326303F934F935F936F937F938F939F93AF9346
S1132640BF93EF93FF9380913E1E90913F1E00979E
S113265039F0DC01ED91FC910084F185E02D1995B0
S1132660FF91EF91BF91AF919F918F917F916F9166
S11326705F914F913F912F910F900BBE0F900FBE22
S11326800F901F9018959F92AF92BF92CF92DF92B6
S1132690EF92FF920F931F93CF93DF93EC01962E4B
S11326A05A01690188EC93E099838883862FE0D4EA
S11326B09B838A83E92DF0E0EE0FFF1FE450FC4F6B
S11326C08081918101969D838C8382EF93E099832D
S11326D0888381E0981226C0D093371EC093361E9B
S11326E0A114B10429F0EFE6F0E0808182608083D8
S11326F0C114D10429F0EFE6F0E080818460808386
S11327000115110529F0EFE6F0E0808188608083EF
S1132710E114F10409F47EC0EFE6F0E08081816009
S1132720808378C083E0981226C0D0933B1EC09368
S11327303A1EA114B10429F0E1E7F0E0808182603F
S11327408083C114D10429F0E1E7F0E08081846042
S113275080830115110529F0E1E7F0E080818860AC
S11327608083E114F10409F455C0E1E7F0E08081CD
S1132770816080834FC084E0981225C0D0933D1EB1
S1132780C0933C1EA114B10429F0E2E7F0E080817B
S113279082608083C114D10429F0E2E7F0E08081F3
S11327A0846080830115110529F0E2E7F0E080815F
S11327B088608083E114F10469F1E2E7F0E080814C
S11327C08160808327C085E098122EC0D0933F1E7D
S11327D0C0933E1EA114B10429F0E3E7F0E0808128
S11327E082608083C114D10429F0E3E7F0E08081A2
S11327F0846080830115110529F0E3E7F0E080810E
S113280088608083E114F10429F0E3E7F0E080813B
S113281081608083B986A886DB86CA861D870C877B
S1132820FF86EE861E821F82DF91CF911F910F914A
S1132830FF90EF90DF90CF90BF90AF909F9008955E
S1132840EF92FF920F931F93CF93DF93FC01FFB698
S1132850F894A481B5818C91887F8C93A481B581EF
S11328608C9185608C93A62FB72FA23181E1B80794
S113287010F0A1E1B1E18FE08A9FE0018B9FD00DC0
S11328801124642F752F623181E1780710F061E122
S113289071E18FE0869FD001879FB00D1124422FF4
S11328A0532F423181E1580710F041E151E18FE0AB
S11328B0849FB001859F700D1124202F312F223168
S11328C081E1380710F021E131E18FE0829FA0011E
S11328D0839F500D1124518B408B828193812091D1
S11328E0FE033091FF038217930789F4D093890084
S11328F0C0938800B0938B00A0938A0070938D00DE
S113290060938C00509385004093840040C02091D4
S11329100204309103048217930789F4D093990039
S1132920C0939800B0939B00A0939A0070939D006D
S113293060939C00509395004093940028C020918C
S11329400404309105048217930789F4D093A900F5
S1132950C093A800B093AB00A093AA007093AD00FD
S11329606093AC005093A5004093A40010C0D09392
S11329702901C0932801B0932B01A0932A017093DD
S11329802D0160932C015093250140932401E6828C
S113299081E08783FFBEDF91CF911F910F91FF905C
S11329A0EF900895EF92FF920F931F93CF93DF93CD
S11329B0FC01FFB6F894A481B5818C91887F8C9337
S11329C0A481B5818C9182608C93862F972F81305E
S11329D060E8960710F080E090E8880F991F642F54
S11329E0752F6130A0E87A0710F060E070E8660F98
S11329F0771F422F532F413020E8520710F040E058
S1132A0050E8440F551F202F312F2130A0E83A07FA
S1132A1010F020E030E8220F331F318B208BA2818D
S1132A20B381C091FE03D091FF03AC17BD0789F4B5
S1132A30909389008093880070938B0060938A0040
S1132A4050938D0040938C00309385002093840034
S1132A5040C0C0910204D0910304AC17BD0789F4AF
S1132A60909399008093980070939B0060939A00D0
S1132A7050939D0040939C003093950020939400C4
S1132A8028C0C0910404D0910504AC17BD0789F493
S1132A909093A9008093A8007093AB006093AA0060
S1132AA05093AD004093AC003093A5002093A40054
S1132AB010C0909329018093280170932B01609397
S1132AC02A0150932D0140932C013093250120932A
S1132AD02401E68281E08783FFBEDF91CF911F91BD
S1132AE00F91FF90EF900895BF92CF92DF92EF92F3
S1132AF0FF920F931F93CF93DF93EC01B62E6A01DD
S1132B00790188EC93E099838883862FB1D29B83E3
S1132B108A83EB2DF0E0EE0FFF1FE450FC4F808121
S1132B20918101969D838C8386ED93E099838883BC
S1132B30B1101DC0D093351EC093341EC114D104EE
S1132B4029F0EEE6F0E0808182608083E114F104F4
S1132B5029F0EEE6F0E080818460808301151105A0
S1132B6029F1EEE6F0E08081816080831FC082E07D
S1132B70B81226C0D093391EC093381EC114D10494
S1132B8029F0E0E7F0E0808182608083E114F104C1
S1132B9029F0E0E7F0E0808184608083011511056D
S1132BA029F0E0E7F0E0808181608083D986C886DF
S1132BB0FB86EA861D861C861F870E871E821F825F
S1132BC0DF91CF911F910F91FF90EF90DF90CF9005
S1132BD0BF900895EF92FF920F931F93CF937C01C0
S1132BE0C62F00E010E020E030E040E050E07CDF61
S1132BF084EE93E0F70191838083C11104C081E0E6
S1132C0080936E0005C0C23019F481E08093700097
S1132C10CF911F910F91FF90EF900895DC012FB792
S1132C20F89483B7817F83BF12964D915C9113977B
S1132C308091FC039091FD034817590721F486B550
S1132C409FEF96BD05C0E2EBF0E080819FEF90839B
S1132C501496ED91FC91159791E090832FBF93B753
S1132C60916093BF889593B79E7F93BF50969C9134
S1132C70891B0895FC019FB7F894A481B5818C91B8
S1132C80887F8C93168217829FBF0895FC018681EA
S1132C908230B8F18F3F11F0815086838281938115
S1132CA02091FE033091FF038217930739F4808942
S1132CB09189909385008093840008952091020463
S1132CC0309103048217930739F480899189909392
S1132CD09500809394000895209104043091050494
S1132CE08217930739F4808991899093A500809382
S1132CF0A4000895808991899093250180932401EB
S1132D000895CF01B7CF0895FC0186818230A0F0E9
S1132D108F3F11F081508683228133818091FC039F
S1132D209091FD032817390719F4808986BD089509
S1132D3080898093B2000895CF019CCF0895EF92CB
S1132D40FF920F931F93CF93DF936115710509F4DD
S1132D50BEC0FFB6F8945091331E503108F0B3C092
S1132D60C0E0D0E0DE01FE01EE0FFF1FEE0FFF1FFB
S1132D70EE0FFF1F8E01000F111FE00FF11FE75E22
S1132D80FD4F0190F081E02D319609F060C0FE0105
S1132D90EE0FFF1FEE0FFF1FEE0FFF1F8E01000F40
S1132DA0111FE00FF11FE75EFD4F7583648373838A
S1132DB062836091311E7091321E6F5F7F4F7093FA
S1132DC0321E6093311E6F3F7F4048F061E070E037
S1132DD07093321E6093311E01E010E004C0009134
S1132DE0311E1091321EBD01660F771F660F771FCB
S1132DF0660F771FFD01EE0FFF1FE60FF71FE75E5B
S1132E00FD4F1183008337832683411101C041E0C4
S1132E109D01220F331FAA0FBB1FAA0FBB1FAA0FAE
S1132E20BB1FA20FB31FA75EBD4F18964C931897F4
S1132E3018962C91189719962C932091331E2F5F76
S1132E402093331E2091331E213011F506C02196A4
S1132E50C031D10509F086CF36C0FC01228921306A
S1132E6061F4EE24EA9400E010E020E030E040E079
S1132E7050E061E070E0E4DC0BC0EE24EA9400E092
S1132E8010E020E030E040E050E061E070E08ADDF6
S1132E90DD27FE01EE0FFF1FCE01880F991F880F5B
S1132EA0991F880F991FE80FF91FE75EFD4F808176
S1132EB0918182959295907F9827807F98278C0F97
S1132EC09D1FFFBE06C0FFBE8FEF9FEF02C08FEFB6
S1132ED09FEFDF91CF911F910F91FF90EF90089595
S1132EE04FB7F894CB018F709927FC01EE0FFF1FA9
S1132EF0880F991F880F991F880F991FE80FF91FD2
S1132F00E75EFD4F208131814FBF729562956F70EE
S1132F1067277F70672781E06217730709F480E0F1
S1132F200895CF93DF93AC01CFB7F894262F2F7079
S1132F3030E0F901EE0FFF1FC901880F991F880FB8
S1132F40991F880F991FE80FF91FE75EFD4F8081D5
S1132F509181729562956F7067277F7067278617D6
S1132F60970711F0D0E025C0F901EE0FFF1F220FE3
S1132F70331F220F331F220F331FE20FF31FE75EAD
S1132F80FD4F2FEF3FEF3183208317821682158286
S1132F901482138212821086D18511869091331E79
S1132FA091509093331E9091331E911102C0CA0127
S1132FB061DECFBF8D2FDF91CF9108954FB7F89485
S1132FC0862F8F7090E0FC01EE0FFF1F9C01220FF3
S1132FD0331F220F331F220F331FE20FF31FE75E4D
S1132FE0FD4F20813181729562956F7067277F70E4
S1132FF0672726173707A9F4FC01EE0FFF1F880F78
S1133000991F880F991F880F991FE80FF91FE75E12
S1133010FD4F82819381958384838085818781E0BC
S113302001C080E04FBF0895282F30E041E050E018
S1133030BA0102C0660F771F8A95E2F7CB0140916F
S1133040411E5091421E64237523672B71F4842B17
S1133050952B9093421E8093411E220F331FF9013A
S1133060E85FFB4F80819181089580E090E00895AE
S11330706091401E282F30E0462F50E0082E02C0F9
S1133080559547950A94E2F740FD14C041E050E09D
S1133090FA0102C0EE0FFF1F8A95E2F7CF01862BDB
S11330A08093401E220F331FF901E450FC4F8081AE
S11330B09181089580E090E0089597FB072E16F41F
S11330C0009406D077FD08D00BD007FC05D03EF461
S11330D0909581959F4F0895709561957F4F0895C0
S11330E0AA1BBB1B51E107C0AA1FBB1FA617B7072A
S11330F010F0A61BB70B881F991F5A95A9F7809546
S11331009095BC01CD010895EE0FFF1F881F8BBF62
S11331100790F691E02D199411E0CBE1D1E000E0A5
S113312005C0802FFE01F0DF2196011DCC31D107AF
S10D313080E00807B1F7F894FFCF20
S113313AFFFFFFFFFFFFFFFFFF0001FF00FF00008B
S113314A01010000FF00FF0100FFFF000000000072
S113315A000000FFFF0000000000000000FFFF0065
S113316A00000000000000FFFF0000000000000053
S113317A00FFFF0000000000000000FFFF00000045
S113318A0000000000FFFF0000000000000000FF34
S113319AFF0000000000000000FFFF000000000024
S11331AA000000FFFF0000000000000000FFFF0015
S11331BA00000000000000FFFF0000000000000003
S11331CA00FFFF0000000000000000FFFF000000F5
S11331DA0000000000FFFF0000000000000000FFE4
S11331EAFF0000000000000000746F205374617235
S11331FA74204D656E7520005072657373205357A1
S113320A3300746F2073746172742053746F70770F
S113321A617463680070726573732053573700636F
S113322A6C6F636B2020200073746F707761746312
S113323A68003030004E6163682045696E676162D8
S113324A65204B6E6F706600647275656B656E20DF
S113325A756E642064616E6E200065786974204D11
S113326A656E752020202020202020002020202088
S113327A2020202020202020202020202000706DC3
S113328A00616D000000000046065906770695069F
S113329AA406DB06BB0600000000460659067706AC
S11332AA9506A406DB0601140000000001180000BC
S11332BA000001280000000002100040000002146F
S11332CA00400000021800400000022800400000EC
S11332DA0410004010500414004010500428004008
S11332EA0040000000004606610C6B0C740CA40636
S11332FADB067D0C00000000460F460F460F460F02
S113330A460F0000000084168D0EA30EB90EBA0EE5
S113331A00000000CC0E8D0EA30EB90EBA0E0000EA
S113332A00004616F20E080F1E0F340F44008000E8
S113333AB0009000A00020012000230026002900EC
S111334A2C002F0032000001030106010901CE
S9030000FC
